:100000000C9463000C948B000C948B000C948B006C
:100010000C948B000C948B000C948B000C948B0034
:100020000C948B000C948B000C948B000C948B0024
:100030000C948B000C948B000C948B000C948B0014
:100040000C947E030C948B000C944C030C942603AC
:100050000C948B000C948B000C948B000C948B00F4
:100060000C948B000C948B000000000024002700EF
:100070002A0000000000250028002B0000000000DE
:1000800023002600290004040404040404040202DA
:100090000202020203030303030301020408102007
:1000A0004080010204081020010204081020000012
:1000B0000008000201000003040700000000000027
:1000C0000000C8037D0611241FBECFEFD8E0DEBFBD
:1000D000CDBF11E0A0E0B1E0E4E4F2E102C00590A0
:1000E0000D92AE36B107D9F722E0AEE6B1E001C01D
:1000F0001D92A232B207E1F710E0C2E6D0E004C0E0
:100100002197FE010E941407C136D107C9F70E944A
:100110003E040C9415090C9400000895AF92BF9210
:10012000CF92DF92EF92FF920F931F93CF93DF93C3
:100130006C017B018B01040F151FEB015E01AE18F2
:10014000BF08C017D10759F06991D601ED91FC9114
:100150000190F081E02DC6010995892B79F7C50141
:10016000DF91CF911F910F91FF90EF90DF90CF9093
:10017000BF90AF900895FC01538D448D252F30E042
:10018000842F90E0821B930B541710F0CF960895A4
:1001900001970895FC01918D828D981761F0A28DD1
:1001A000AE0FBF2FB11D5D968C91928D9F5F9F7397
:1001B000928F90E008958FEF9FEF08952FB7F894F6
:1001C0008091770190917801A0917901B0917A01A5
:1001D0002FBF8093830190938401A0938501B093F6
:1001E00086018BE791E00E94CA0097FF26C02FB7D7
:1001F000F8948091770190917801A0917901B09164
:100200007A012FBF40918301509184016091850153
:1002100070918601841B950BA60BB70B40917F0153
:10022000509180016091810170918201841795073E
:10023000A607B707B0F28FEF9FEF0895FC01918DED
:10024000828D981731F0828DE80FF11D858D90E039
:1002500008958FEF9FEF0895FC01918D228D892FD6
:1002600090E0805C9F4F821B91098F7399270895BE
:100270008BE791E00E942C0121E0892B09F420E01A
:10028000822F089580E090E0892B29F00E943801A8
:1002900081110C9400000895FC01A48DA80FB92FC2
:1002A000B11DA35ABF4F2C91848D90E001968F739E
:1002B0009927848FA689B7892C93A089B1898C91BD
:1002C000837080648C93938D848D981306C002880C
:1002D000F389E02D80818F7D80830895EF92FF92D6
:1002E0000F931F93CF93DF93EC0181E0888F9B8D59
:1002F0008C8D98131AC0E889F989808185FF15C013
:100300009FB7F894EE89FF896083E889F989808135
:100310008370806480839FBF81E090E0DF91CF9104
:100320001F910F91FF90EF900895F62E0B8D10E026
:100330000F5F1F4F0F731127E02E8C8D8E110CC095
:100340000FB607FCFACFE889F989808185FFF5CFE0
:10035000CE010E944C01F1CFEB8DEC0FFD2FF11D72
:10036000E35AFF4FF0829FB7F8940B8FEA89FB891D
:1003700080818062CFCFCF93DF93EC01888D88237B
:10038000B9F0AA89BB89E889F9898C9185FD03C0F8
:10039000808186FD0DC00FB607FCF7CF8C9185FFDD
:1003A000F2CF808185FFEDCFCE010E944C01E9CFD5
:1003B000DF91CF910895833081F028F4813099F056
:1003C0008230A9F008958730A9F08830C9F08430D0
:1003D000B1F4809180008F7D03C0809180008F7781
:1003E00080938000089584B58F7784BD089584B587
:1003F0008F7DFBCF8091B0008F778093B000089500
:100400008091B0008F7DF9CFCF93DF93E0EBF0E0E8
:100410008491ECE9F0E0D491E8E8F0E0C491CC23D9
:10042000A1F081110E94DB01EC2FF0E0EE0FFF1F25
:10043000E458FF4FA591B491EC91ED2381E090E059
:1004400009F480E0DF91CF91089580E090E0FACF49
:100450001F93CF93DF93282F30E0F901E255FF4F30
:100460008491F901E656FF4FD491F901EA57FF4F05
:10047000C491CC23A9F0162F81110E94DB01EC2F2F
:10048000F0E0EE0FFF1FEE58FF4FA591B4918FB72C
:10049000F894EC91111108C0D095DE23DC938FBF46
:1004A000DF91CF911F910895DE2BF8CFCF93DF938B
:1004B00090E0FC01E656FF4F24918A579F4FFC01C4
:1004C00084918823D1F090E0880F991FFC01E859AE
:1004D000FF4FA591B491FC01EE58FF4FC591D49107
:1004E00061110EC09FB7F8948C91E22FE0958E2396
:1004F0008C932881E223E8839FBFDF91CF910895F9
:100500008FB7F894EC91E22BEC938FBFF6CF3FB707
:10051000F89480916F0190917001A0917101B09158
:10052000720126B5A89B05C02F3F19F00196A11DA9
:10053000B11D3FBFBA2FA92F982F8827BC01CD012D
:10054000620F711D811D911D42E0660F771F881F8C
:10055000991F4A95D1F708958F929F92AF92BF92BB
:10056000CF92DF92EF92FF920E9487024B015C01D3
:1005700084E1C82ED12CE12CF12C0E94870268194D
:1005800079098A099B09683E734081059105A8F3A2
:1005900021E0C21AD108E108F10888EE880E83E054
:1005A000981EA11CB11CC114D104E104F10429F767
:1005B000FF90EF90DF90CF90BF90AF909F908F9083
:1005C0000895CF93DF93FC0101900020E9F7319764
:1005D000AF01481B590BBC018BE791E00E948E00D4
:1005E000EC0142E050E068E171E08BE791E00E94AD
:1005F0008E008C0F9D1FDF91CF9108950F931F9355
:10060000CF93DF93EC0188819981009759F02A817B
:100610003B812617370730F081E0DF91CF911F91A2
:100620000F9108958B016F5F7F4F0E943F080097E5
:1006300059F0998388831B830A832C813D81232B66
:1006400059F7FC011082E8CF80E0E7CF1F920F92AC
:100650000FB60F9211242F933F934F935F936F9395
:100660007F938F939F93AF93BF93EF93FF938BE70A
:1006700091E00E944C01FF91EF91BF91AF919F914A
:100680008F917F916F915F914F913F912F910F903B
:100690000FBE0F901F9018951F920F920FB60F92DA
:1006A00011242F938F939F93EF93FF93E0918B01EE
:1006B000F0918C018081E0919101F091920182FD95
:1006C0001BC09081809194018F5F8F732091950161
:1006D000821741F0E0919401F0E0E558FE4F958FCC
:1006E00080939401FF91EF919F918F912F910F90A3
:1006F0000FBE0F901F9018958081F4CF1F920F921C
:100700000FB60F9211242F933F938F939F93AF9324
:10071000BF938091770190917801A0917901B09178
:100720007A0130916E0123E0230F2D3758F50196A1
:10073000A11DB11D20936E018093770190937801E4
:10074000A0937901B0937A0180916F01909170012B
:10075000A0917101B09172010196A11DB11D80930C
:100760006F0190937001A0937101B0937201BF91DA
:10077000AF919F918F913F912F910F900FBE0F904E
:100780001F90189526E8230F0296A11DB11DD2CF08
:1007900010927E0110927D0188EE93E0A0E0B0E01F
:1007A00080937F0190938001A0938101B093820197
:1007B0008AE091E090937C0180937B0185EC90E04E
:1007C000909388018093870184EC90E090938A0154
:1007D0008093890180EC90E090938C0180938B0151
:1007E00081EC90E090938E0180938D0182EC90E0FB
:1007F0009093900180938F0186EC90E0909392010A
:10080000809391011092940110929501109296019B
:1008100010929701109219021092180210921B0266
:1008200010921A0210921D0210921C0270E060E0F9
:1008300088E192E00E94FE02209118023091190294
:10084000811113C02115310519F0C9010E94B607A5
:10085000109219021092180210921D0210921C029E
:1008600010921B0210921A02089510921D0210920B
:100870001C026AE171E0C9010C940E09CF93DF9369
:10088000CDB7DEB728970FB6F894DEBF0FBECDBF49
:10089000789484B5826084BD84B5816084BD85B55B
:1008A000826085BD85B5816085BD80916E00816067
:1008B00080936E001092810080918100826080930D
:1008C000810080918100816080938100809180000F
:1008D0008160809380008091B10084608093B1003A
:1008E0008091B00081608093B00080917A00846034
:1008F00080937A0080917A00826080937A00809160
:100900007A00816080937A0080917A008068809379
:100910007A001092C100E0918B01F0918C0182E08D
:100920008083E0918701F09188011082E091890134
:10093000F0918A018FEC808310929301E0918F01F6
:10094000F091900186E08083E0918D01F0918E011D
:10095000808180618083E0918D01F0918E018081A2
:1009600088608083E0918D01F0918E0180818068A4
:100970008083E0918D01F0918E0180818F7D808355
:1009800061E089E00E94560261E086E00E94560222
:1009900061E087E00E94560260E082E00E94560219
:1009A00060E086E00E94280261E087E00E94280261
:1009B0008BE191E00E94E10200E444244A9483E048
:1009C000582E612C712C97EBA92E90E0B92E20E0C7
:1009D000C22E20E0D22E88248394912C8BE791E0C4
:1009E0000E942C01892BD1F31A8219821C821B824E
:1009F0001E821D8270E060E0CE0101960E94FE0220
:100A000029813A8181112CC02115310519F0C901C4
:100A10000E94B6071A8219821E821D821C821B82C6
:100A20000E94DE0097FD24C08F831886ED80FE8033
:100A30008FEFE81AF80AB701CE0101960E94FE0274
:100A4000882371F329813A818D819E81BE01695F7E
:100A50007F4F820F931F0E940E09FE82ED82E0CF2E
:100A60001E821D826AE171E0C9010E940E09D8CF81
:100A70008091180290911902009709F4DBC06981F6
:100A80007A816115710509F4D3C040911A02509121
:100A90001B022D813E814217530708F4C9C00E94F2
:100AA0000E098D819E8190931D0280931C021E82EF
:100AB0001D8289819A81009711F00E94B60780916A
:100AC0001C0290911D02892B09F4A6C060E571E01B
:100AD00080911802909119020E940509892B09F052
:100AE00083C000937C0080917A00806480937A00B8
:100AF00080917A0086FDFCCF80917800A0917900EA
:100B0000BA2FA82F2FEF30E00E940D07A30192010A
:100B10000E948606122F332EE22EF32E61E089E02A
:100B20000E945602E114F10409F09BC060E089E0E4
:100B30000E9428020E940402019771F481E090E073
:100B40002091750130917601232B11F090E080E027
:100B500090937601809375010E9404020197E1F35E
:100B60000E94AC0280917501909176010197C1F4C9
:100B70008091730190917401892B91F482E591E049
:100B80000E94E10261E086E00E94280260E087E0C6
:100B90000E94280290927401809273010E94AC021C
:100BA0008091750190917601892BC1F48091730138
:100BB00090917401019791F482E591E00E94E10225
:100BC00060E086E00E94280261E087E00E9428023F
:100BD00010927401109273010E94AC0280911C0269
:100BE00090911D02892BC1F061E671E0809118029D
:100BF000909119020E940509892B71F483E691E016
:100C00000E94E10260E086E00E94280260E087E046
:100C10000E9428020E94AC02C114D10409F4DECE65
:100C20000E943801882309F4D9CE0E940000D6CE54
:100C30000E94B60789819A819093190280931802C5
:100C40008B819C8190931B0280931A028D819E81DF
:100C500090931D0280931C021A8219821C821B82AF
:100C600026CFEFEFEE16F10411F461E060CFF5014D
:100C70008491833031F148F48130C9F08230E1F061
:100C8000F0E8EF16F1048CF751CF873031F188305E
:100C900061F18430A9F780918000806280938000A8
:100CA000812F932D90938B0080938A0043CF84B53E
:100CB000806884BD17BD3ECF84B5806284BD18BDF9
:100CC00039CF80918000806880938000812F932DA0
:100CD00090938900809388002DCF8091B000806828
:100CE0008093B0001093B30025CF8091B000806254
:100CF0008093B0001093B4001DCF809118029091A2
:100D00001902009711F00C94B6070895052E97FB71
:100D10001EF400940E949D0657FD07D00E94DC0639
:100D200007FC03D04EF40C949D06509540953095E9
:100D300021953F4F4F4F5F4F089590958095709547
:100D400061957F4F8F4F9F4F08952F923F924F9203
:100D50005F926F927F928F929F92AF92BF92CF924B
:100D6000DF92EF92FF920F931F93CF93DF93CDB754
:100D7000DEB7CA1BDB0B0FB6F894DEBF0FBECDBFCC
:100D800009942A88398848885F846E847D848C849D
:100D90009B84AA84B984C884DF80EE80FD800C81A6
:100DA0001B81AA81B981CE0FD11D0FB6F894DEBF89
:100DB0000FBECDBFED010895A1E21A2EAA1BBB1BE9
:100DC000FD010DC0AA1FBB1FEE1FFF1FA217B30717
:100DD000E407F50720F0A21BB30BE40BF50B661F2D
:100DE000771F881F991F1A9469F7609570958095F1
:100DF00090959B01AC01BD01CF010895A29FB00168
:100E0000B39FC001A39F700D811D1124911DB29F3E
:100E1000700D811D1124911D08950E94FE06B7FFDB
:100E20000895821B930B0895EE0FFF1F0590F49118
:100E3000E02D09940F931F93CF93DF938230910598
:100E400010F482E090E0E0912002F091210230E085
:100E500020E0B0E0A0E0309799F42115310509F4C5
:100E60004AC0281B390B24303105D8F58A819B8173
:100E70006115710589F1FB0193838283FE0111C025
:100E8000408151810281138148175907E0F04817CA
:100E9000590799F4109761F012960C9312971396D4
:100EA0001C933296CF01DF91CF911F910F9108953E
:100EB0000093200210932102F4CF2115310551F047
:100EC0004217530738F0A901DB019A01BD01DF0188
:100ED000F801C1CFEF01F9CF909321028093200256
:100EE000CDCFFE01E20FF31F819391932250310980
:100EF00039832883D7CF20911E0230911F02232BE4
:100F000041F4209102013091030130931F0220939C
:100F10001E0220910001309101012115310541F49B
:100F20002DB73EB74091040150910501241B350BAC
:100F3000E0911E02F0911F02E217F307A0F42E1BAE
:100F40003F0B2817390778F0AC014E5F5F4F24172D
:100F5000350748F04E0F5F1F50931F0240931E024B
:100F6000819391939FCFF0E0E0E09CCFCF93DF930C
:100F70000097E9F0FC01329713821282A0912002BF
:100F8000B0912102ED0130E020E01097A1F4208122
:100F90003181820F931F20911E0230911F0228176A
:100FA000390709F061C0F0931F02E0931E02DF9140
:100FB000CF910895EA01CE17DF07E8F54A815B81FA
:100FC0009E0141155105B1F7E901FB83EA8349917F
:100FD0005991C40FD51FEC17FD0761F480819181F1
:100FE0000296840F951FE9019983888382819381FA
:100FF0009B838A83F0E0E0E012968D919C91139799
:101000000097B9F52D913C911197CD010296820F71
:10101000931F20911E0230911F022817390739F6BD
:10102000309751F51092210210922002B0931F02C6
:10103000A0931E02BCCFD383C28340815181840F11
:10104000951FC817D90761F44E5F5F4F888199815A
:10105000480F591F518340838A819B8193838283E8
:101060002115310509F0B0CFF0932102E093200261
:101070009ECFFD01DC01C0CF13821282D7CFB0E03A
:10108000A0E0E5E4F8E00C94A7068C01009751F489
:10109000CB010E941A078C01C801CDB7DEB7E0E191
:1010A0000C94C306FC01E60FF71F9C012250310986
:1010B000E217F30708F49DC0D901CD91DC91119797
:1010C000C617D70798F0C530D10530F3CE01049785
:1010D0008617970708F3C61BD70B2297C193D193A6
:1010E0006D937C93CF010E94B607D6CF5B01AC1AFB
:1010F000BD0A4C018C0E9D1EA0912002B0912102D0
:10110000512C412CF12CE12C109731F580911E02CD
:1011100090911F028815990509F05CC04616570684
:1011200008F058C08091000190910101009741F4AE
:101130008DB79EB74091040150910501841B950B1A
:10114000E817F90708F055C0F0931F02E0931E025C
:10115000F90171836083A0CF8D919C9111971296B4
:101160006C90129713967C901397A815B90559F5B2
:101170006C0142E0C40ED11CCA14DB0420F1AC01A6
:101180004A195B09DA011296159780F06282738220
:1011900051834083D9016D937C93E114F10471F084
:1011A000D7011396FC93EE93129776CF22968C0F6D
:1011B0009D1FF90191838083F301EFCFF09321020A
:1011C000E093200269CF4816590608F42C017D01EE
:1011D000D3019ACFCB010E941A077C01009749F0F6
:1011E000AE01B8010E94FC08C8010E94B607870141
:1011F00053CF10E000E050CFFB01DC0102C00190B2
:101200000D9241505040D8F70895FB01DC018D91BB
:10121000019080190110D9F3990B0895FB01DC01AD
:1012200001900D920020E1F7089510E0C2E6D0E0B1
:1012300004C0FE010E9414072196C336D107C9F7E6
:04124000F894FFCF50
:10124400000022028000000000006E018E00BB003E
:10125400BB012C01CA001E010D0A0053696C616BAD
:10126400616E206B6574696B2027772720756E7417
:10127400756B206D656D757461722C202773272042
:10128400756E74756B2062657268656E74692E0084
:10129400770042657262616C696B20617261682ECD
:0E12A40000730042657268656E74692E00006A
:107E0000112484B714BE81FFF0D085E080938100F7
:107E100082E08093C00088E18093C10086E0809377
:107E2000C20080E18093C4008EE0C9D0259A86E02C
:107E300020E33CEF91E0309385002093840096BBD3
:107E4000B09BFECF1D9AA8958150A9F7CC24DD24C4
:107E500088248394B5E0AB2EA1E19A2EF3E0BF2EE7
:107E6000A2D0813461F49FD0082FAFD0023811F036
:107E7000013811F484E001C083E08DD089C08234E0
:107E800011F484E103C0853419F485E0A6D080C0E4
:107E9000853579F488D0E82EFF2485D0082F10E0AE
:107EA000102F00270E291F29000F111F8ED06801E7
:107EB0006FC0863521F484E090D080E0DECF843638
:107EC00009F040C070D06FD0082F6DD080E0C81688
:107ED00080E7D80618F4F601B7BEE895C0E0D1E017
:107EE00062D089930C17E1F7F0E0CF16F0E7DF06D8
:107EF00018F0F601B7BEE89568D007B600FCFDCFD4
:107F0000A601A0E0B1E02C9130E011968C91119780
:107F100090E0982F8827822B932B1296FA010C0160
:107F200087BEE89511244E5F5F4FF1E0A038BF0790
:107F300051F7F601A7BEE89507B600FCFDCF97BE46
:107F4000E89526C08437B1F42ED02DD0F82E2BD052
:107F50003CD0F601EF2C8F010F5F1F4F84911BD097
:107F6000EA94F801C1F70894C11CD11CFA94CF0C13
:107F7000D11C0EC0853739F428D08EE10CD085E9AC
:107F80000AD08FE07ACF813511F488E018D01DD067
:107F900080E101D065CF982F8091C00085FFFCCF94
:107FA0009093C60008958091C00087FFFCCF809118
:107FB000C00084FD01C0A8958091C6000895E0E648
:107FC000F0E098E1908380830895EDDF803219F02E
:107FD00088E0F5DFFFCF84E1DECF1F93182FE3DFCA
:107FE0001150E9F7F2DF1F91089580E0E8DFEE27F6
:047FF000FF270994CA
:027FFE00040479
:0400000300007E007B
:00000001FF
